:020000040800F2
:10000000005000204D430008053F0008073F00084E
:10001000093F00080B3F00080D3F000800000000EA
:100020000000000000000000000000002136000871
:100030000F3F000800000000C1360008113F000813
:100040009543000895430008954300089543000830
:100050009543000895430008954300089543000820
:100060009543000895430008954300089543000810
:100070009543000895430008954300089543000800
:1000800095430008954300089543000895430008F0
:10009000193F000895430008954300089543000860
:1000A00095430008293F0008954300089543000840
:1000B00095430008954300089543000895430008C0
:1000C00095430008954300089543000895430008B0
:1000D00095430008954300089543000895430008A0
:1000E0009543000895430008954300080000000070
:1000F0000000000000000000000000000000000000
:0C01000000000000000000005FF808F1A3
:1001100010B5054C237833B9044B13B10448AFF341
:1001200000800123237010BD640100200000000046
:10013000E043000808B5034B1BB103490348AFF384
:10014000008008BD0000000068010020E0430008B6
:1001500008B5074A136843F010031360032000F04A
:100160001BF8002003F092FE03F0A0FD002008BD64
:1001700000200240034A1168034B1B780B441360B4
:10018000704700BFF010002000000020014B1868ED
:10019000704700BFF0100020074AD36823F4E063E3
:1001A0001B041B0C000200F4E060184340F0BF6029
:1001B00040F40030D060704700ED00E030B4174BE1
:1001C000DB68C3F30223C3F10704042C28BF042413
:1001D0001D1D062D18D9033B4FF0FF3505FA04F419
:1001E00021EA0401994005FA03F322EA03031943C3
:1001F00000280BDB0901C9B200F1604000F5614045
:1002000080F8001330BC70470023E5E700F00F00D2
:100210000901C9B2024B1954F4E700BF00ED00E038
:1002200014ED00E000F01F02400901239340024A50
:1002300042F82030704700BF00E100E00138B0F123
:10024000807F0AD2064B5860064AF02182F82310BC
:100250000020986007221A6070470120704700BF95
:1002600010E000E000ED00E0042805D0054A136826
:1002700023F0040313607047024A136843F0040339
:100280001360704710E000E0F0B482B000263546FD
:10029000A1E0002C59D0012C00D1CE68FF2B68D8EA
:1002A0008446FF2B68D8AC00DCF800200F27A7405D
:1002B00022EA070206FA04F42243CCF800204A6836
:1002C00012F0805F00F086805E4A946944F0010479
:1002D0009461926902F001020192019AAC08A71C94
:1002E000594A52F8272005F00307BF004FF00F0CC2
:1002F0000CFA07FC22EA0C0C544A904242D002F558
:10030000806290427FD002F5806290427DD002F5FB
:100310008062904234D0042235E04D4FBC4214D06C
:100320000BD94C4FBC4210D007F58037BC420CD0E3
:10033000A7F58017BC42B1D107E0A7F58017BC42F2
:1003400003D007F58037BC42A8D18C687CB1012C62
:1003500008D042610826A1E7CE6808369EE7CE683D
:100360000C369BE70261082698E7002696E70426EC
:1003700094E700F1040C94E7A5F10804A40093E7C6
:10038000032200E00022BA4042EA0C0202342E4F5F
:1003900047F824204A6812F4803F38D02E4C226857
:1003A0001A4322604A6812F4003F36D02A4C626831
:1003B0001A4362604A6812F4801F34D0264CA26847
:1003C0001A43A2604A6812F4001F32D0224CE2683D
:1003D0001343E36001350F2D31D80122AA400B6889
:1003E00013409A42F6D14C68122CB8D095D8022C02
:1003F000B2D07FF64EAF032CB7D0112C7FF44EAFA6
:10040000CE6804364AE70122BDE70222BBE7124C60
:10041000226822EA03022260C4E70F4C626822EAE3
:1004200003026260C6E70C4CA26822EA0302A260E3
:10043000C8E7094CE26822EA0303E360CAE702B0B6
:10044000F0BC70470010024000000140000801406D
:10045000000021100000311000040140002800F0CD
:10046000A28038B5044690F83D30002B4FD02423AD
:1004700084F83D302268136823F00103136001F013
:1004800009F862684A4B9A4246D84A4B98428CBF58
:1004900000230123002B40F08880474BA3FB00235F
:1004A0009B0C226853606168414A91423AD80133FB
:1004B0002268136261683E4B99423DD8431E490051
:1004C000B3FBF1F30133C3F30B03042B38BF042355
:1004D0002268D361E369216A22680B4313602369B0
:1004E000E16822680B4393606369A16922680B434A
:1004F000D3602268136843F0010313600020206476
:10050000202384F83D30206384F83E0038BD80F815
:100510003C3003F01BFCAAE7284B98428CBF002319
:100520000123B7E74FF4967202FB03F3244AA2FBC0
:1005300003239B090133BBE7A368BBB9421E01EB50
:100540004105B2FBF5F20132C2F30B02B2FA82F2BC
:10055000520932BBC3B9013801EB4103B0FBF3F3DD
:100560000133C3F30B0343F40043B1E7421E01EB35
:10057000810505EB8505B2FBF5F20132C2F30B02F2
:10058000B2FA82F25209E4E7013801EB810303EB8E
:100590008303B0FBF3F30133C3F30B0343F4404392
:1005A00096E7012394E7012070470120AEE700BFE2
:1005B000A08601007F841E0083DE1B43FF083D00F0
:1005C000D34D6210002866D0F0B587B0044690F88D
:1005D0002934C3B1032384F82934206801F05AFA7E
:1005E000254655F8107B6E460FCD0FC62B6833603D
:1005F000231D0ECB384601F03EFA0021206801F0A1
:1006000053FA002315E080F8283403F0FDFCE1E7FD
:1006100004EB4312012182F8291082F828309386D6
:10062000002182F82B109163D1639A1C5201A150D2
:1006300001330E2BECD9002312E004EB431200210E
:1006400082F8291282F82832938682F82B12C2F897
:100650003812C2F83C1203F112025201A1500133C8
:100660000E2BEAD9254655F8107B6E460FCD0FC6E6
:100670002B683360231D0ECB384601F017FA002596
:1006800084F82450012384F82934206801F022FDE5
:10069000284607B0F0BD0120704790F82834012BA0
:1006A00010D010B50446012180F8281403F0EBFDAA
:1006B000206801F00DFD206801F0E4F9002084F8C5
:1006C000280410BD0220704790F82834012B0DD06B
:1006D00010B50446012380F8283480F824100068FF
:1006E00001F0F0FC002084F8280410BD02207047BF
:1006F00038B54DB2002D1CDB01F07F04640104F518
:100700000A74044401F07F012170ED0F65702261CD
:10071000E37090F82834012B11D00546012380F8AE
:1007200028342146006801F0D7F9002085F8280414
:1007300038BD01F07F04640128340444E2E702205C
:10074000F6E74AB2002A1BDB01F07F035B0103F5E9
:100750000A73034401F07F011970D20F5A7090F8A8
:100760002824012A12D010B50446012280F828243A
:100770001946006801F044FB002084F8280410BDED
:1007800001F07F035B0128330344E3E70220704755
:1007900070B501F07F056C0104F50A710144044451
:1007A000C4F83C2205F1120252018618835000233E
:1007B000736084F8293284F8285225B1006801F06A
:1007C000A5FC002070BD006801F0A0FCF9E701F075
:1007D0000F01123100EB41118888704770B501F0AC
:1007E0007F056C0104F1280101440444E263AA1C62
:1007F00052018618835000237360012384F8293046
:1008000084F8285025B1006801F080FC002070BDFC
:10081000006801F07BFCF9E770B582B00446002364
:10082000ADF80630ADF804302068B0F844309BB223
:10083000ADF8063013F4004F00F00D82BDF80650FD
:1008400015F00F0540F0C280BDF8063013F0100F10
:1008500050D003889BB2ADF80430BDF8043013F4D7
:10086000006F79D1BDF8043013F4004FDCD0038859
:1008700023F070031B051B0D03802068B0F8503077
:1008800094F8282203EBC203063300EB4303D3F8AA
:100890000034C3F30903C4F84432002B7CD1002197
:1008A000204603F0D9FB2368B3F85020063203EB4F
:1008B0004203D4F838123E297CD9C1F34F1211F00B
:1008C0001F0F01D1013A92B26FEAC2626FEA52423F
:1008D00092B2C3F80024226813889BB223F48043A9
:1008E00023F0700383F4405343F4004343F0800348
:1008F000138099E703889BB223F4E14323F070034C
:100900009BB203802268B2F8503094F8281003EBB1
:10091000C103023302EB4303D3F80034C3F30903EA
:100920006364E26B1344E3630021204603F09EFB03
:1009300094F82430002B3FF477AF236C002B7FF426
:1009400073AF94F82430226843F08003A2F84C304F
:10095000002384F8243067E7B0F8503094F8282258
:1009600003EBC203063300EB4303D3F80034C3F3B5
:100970000903C4F84432B4F82C2204F22C4101F0EB
:1009800022FD2268138823F070031B051B0D1380C2
:10099000204603F059FB47E7B4F82C22D4F83C1268
:1009A00001F011FDD4F84422D4F83C321344C4F8C9
:1009B0003C3274E7C1F34F0211F0010F01D0013254
:1009C00092B2920292B2C3F8002484E730F8253044
:1009D0009BB2ADF80430BDF8043013F4004F35D1AC
:1009E000BDF8043013F0800F3FF41EAF226832F8D8
:1009F00025309BB223F4E14323F070039BB222F82D
:100A0000253004EB451393F83230002B40F0B280D0
:100A10002068B0F8503004EB451292F8282003EB20
:100A2000C203023300EB4303D3F80034C3F30903DA
:100A3000AA1C04EB42125360002B00F0C68004EBAA
:100A400045118A8DC96B01F04CFBBEE030F82530B2
:100A500023F070031B051B0D20F8253004EB451314
:100A600093F83232D3B92068B0F8503004EB451215
:100A700092F8282203EBC203063300EB4303B3F8DA
:100A80000064C6F3090686B304EB45113346B1F89A
:100A90002C22D1F83C1201F096FC26E0206804EBF1
:100AA000451393F8282230F8223013F4804F42D0B7
:100AB000B0F8503003EBC203023300EB4303B3F84A
:100AC0000064C6F3090666BB226804EB451393F87D
:100AD000281232F8213023F0F0031B051B0D43F4DC
:100AE000004343F0C00322F8213005F112035B01FB
:100AF000E1184A6832444A6004EB4511D1F83C22BF
:100B00003244C1F83C22E3581BB1D1F838128E426E
:100B100028D204EB451393F82812204603F09CFAE0
:100B20005EE704EB45113346B1F82E22D1F83C12B2
:100B300001F049FCC8E7B0F8503003EBC2030633BC
:100B400000EB4303B3F80064C6F30906002EBBD0E4
:100B500004EB45113346B1F83022D1F83C1201F0D4
:100B600032FCB1E704EB451191F828122046FFF75B
:100B70000FFE35E7206804EB451393F8282030F882
:100B8000223013F0400F46D0B0F8503003EBC203D0
:100B9000023300EB4303D3F80034C3F30903AA1C68
:100BA00004EB421253607BBB226804EB451393F8BD
:100BB000281032F8213023F0F0031B051B0D43F4FD
:100BC000404343F0800322F821302268B2F85030CD
:100BD00004EB451090F8281003EBC103023302EB3D
:100BE0004303D3F80024C2F30902AB1C5B01E118F4
:100BF0004A60C16B0A44C263E35823BB90F82810D3
:100C0000204603F033FA0FE604EB4511CA8DC96B99
:100C100001F067FAC8E7B0F8503003EBC2030633BF
:100C200000EB4303D3F80034C3F30903AA1C04EB1D
:100C300042125360002BB7D004EB45110A8EC96BEA
:100C400001F04FFAB0E704EB451595F8281020465F
:100C5000FFF7C4FDE8E5002002B070BD10B5044602
:100C6000006801F039FA10F4004F45D1206801F016
:100C700033FA10F4806F43D1206801F02DFA10F49C
:100C8000804F08D02268B2F844309BB223F48043EE
:100C90009BB2A2F84430206801F01EFA10F4005F05
:100CA00008D02268B2F844309BB223F400539BB2C0
:100CB000A2F84430206801F00FFA10F4805F30D1C0
:100CC000206801F009FA10F4006F49D1206801F0A2
:100CD00003FA10F4007F64D1206801F0FDF910F4EC
:100CE000807F08D02268B2F844309BB223F480732E
:100CF0009BB2A2F8443010BD2046FFF78DFDB5E74A
:100D00002268B2F844309BB223F480639BB2A2F80D
:100D10004430204603F0B9F900212046FFF7D4FC07
:100D2000AAE72268B2F840309BB223F004039BB2DA
:100D3000A2F840302268B2F840309BB223F008039A
:100D40009BB2A2F84030204603F0BCF92268B2F80A
:100D500044309BB223F480539BB2A2F84430AFE7F7
:100D60002268B2F8403043F00803A2F8403022680D
:100D7000B2F844309BB223F400639BB2A2F8443033
:100D80002268B2F8403043F00403A2F840302068F3
:100D900001F0A2F910F4805F98D1204603F082F9A7
:100DA00094E72268B2F844309BB223F400739BB2FC
:100DB000A2F84430204603F062F98DE738B54AB214
:100DC000002A1BDB4B0103F50A73034401249C70CA
:100DD00001F07F051D70D20F5A7090F82824A242AE
:100DE00018D00446012280F828241946006801F032
:100DF000E9F84DB1002084F8280438BD01F07F03E4
:100E00005B0128330344E1E704F22C41206801F040
:100E100066F9EFE70220F0E710B54AB2002A1ADBC4
:100E20004B0103F50A73034400249C7001F07F0119
:100E30001970D20F5A7090F82824012A11D0044654
:100E4000012280F828241946006801F0F2F80020F9
:100E500084F8280410BD01F07F035B0128330344AC
:100E6000E2E70220F6E711F0800F0CD001F07F01DD
:100E70004901283101445AB101228A72CB801B0CEE
:100E80000B8100207047490101F50A710144F2E726
:100E90008A728B80F5E7000082B0084B1B68084A15
:100EA000A2FB03235B0A00FB03F0019000BF019B40
:100EB0005A1E0192002BF9D102B070471C0100208C
:100EC000D34D621070B582B00446036813F0010F71
:100ED0002CD0AB4B5B6803F00C03042B1DD0A84B4C
:100EE0005B6803F00C03082B12D06368B3F5803FF6
:100EF00041D0002B55D103F1804303F504331A6828
:100F000022F480321A601A6822F480221A6037E0D4
:100F10009B4B5B6813F4803FE7D0994B1B6813F43D
:100F2000003F03D06368002B00F0AE81236813F00C
:100F3000020F76D0924B5B6813F00C0F5FD0904B92
:100F40005B6803F00C03082B54D02369002B00F0DE
:100F50008A808C4B01221A60FFF718F90546884BEE
:100F60001B6813F0020F75D1FFF710F9401B022820
:100F7000F5D903208BE1824A136843F48033136070
:100F8000636843B3FFF702F905467D4B1B6813F412
:100F9000003FCBD1FFF7FAF8401B6428F5D90320B6
:100FA00075E1B3F5A02F09D0754B1A6822F4803291
:100FB0001A601A6822F480221A60E1E703F1804384
:100FC000A3F53C331A6842F480221A601A6842F48E
:100FD00080321A60D4E7FFF7D9F80546684B1B68E2
:100FE00013F4003FA2D0FFF7D1F8401B6428F5D9D5
:100FF00003204CE1624B5B6813F4803FA5D1604B4A
:101000001B6813F0020F04D02369012B01D00120CB
:101010003DE15B4A136823F0F803616943EAC103C9
:101020001360236813F0080F32D0A369002B5BD044
:10103000554B01221A60FFF7A9F80546504B5B6A31
:1010400013F0020F21D1FFF7A1F8401B0228F5D9B8
:1010500003201CE14A4A136823F0F803616943EA5C
:10106000C1031360DDE7474B00221A60FFF78EF8DB
:101070000546434B1B6813F0020FD2D0FFF786F8EA
:10108000401B0228F5D9032001E10120FFF704FFEE
:10109000236813F0040F00F09780394BDB6913F0DD
:1010A000805F33D1364BDA6942F08052DA61DB6916
:1010B00003F080530193019B0125344B1B6813F40B
:1010C000807F25D0E368012B36D0002B4CD103F173
:1010D000804303F504331A6A22F001021A621A6A85
:1010E00022F004021A622CE0274B00221A60FFF75C
:1010F0004DF80546224B5B6A13F0020FC8D0FFF78C
:1011000045F8401B0228F5D90320C0E00025D4E7AC
:101110001E4A136843F480731360FFF737F80646DE
:101120001A4B1B6813F4807FCCD1FFF72FF8801B7C
:101130006428F5D90320AAE0114A136A43F0010399
:101140001362E36873B3FFF721F806460C4B1B6A82
:1011500013F0020F37D1FFF719F8801B41F28833E3
:101160009842F3D9032092E0052B11D0044B1A6A60
:1011700022F001021A621A6A22F004021A62E0E7FF
:1011800000100240000042428004424200700040D1
:10119000414B1A6A42F004021A621A6A42F00102D2
:1011A0001A62CEE7FEF7F2FF06463B4B1B6A13F0CE
:1011B000020F08D0FEF7EAFF801B41F28833984205
:1011C000F3D9032063E0E5B9E369002B5ED0324A2E
:1011D000526802F00C02082A5BD0022B17D02F4B6A
:1011E00000221A60FEF7D2FF04462B4B1B6813F057
:1011F000007F47D0FEF7CAFF001B0228F5D9032065
:1012000045E0254AD36923F08053D361DCE7234BC3
:1012100000221A60FEF7BAFF05461F4B1B6813F049
:10122000007F06D0FEF7B2FF401B0228F5D903204D
:101230002DE0236AB3F5803F1AD017494B6823F499
:101240007413226A606A024313434B60134B0122FA
:101250001A60FEF79BFF04460F4B1B6813F0007FDC
:101260000ED1FEF793FF001B0228F5D903200EE0F4
:10127000094A536823F40033A1680B435360DCE749
:10128000002004E0002002E0012000E0002002B085
:1012900070BD0120FBE700BF001002406000424229
:1012A00010B487B0164C94E80F000DF1180C0CE93F
:1012B0000F00238AADF80430124B5B6803F00C0278
:1012C000082A1AD1C3F38342624412F8102C13F493
:1012D000803F05D10C4800FB02F007B010BC7047FE
:1012E000084B5B68C3F34043634413F8143C07485E
:1012F00000FB02F0B0FBF3F0EFE70448EDE700BFBE
:10130000F84300080010024000093D0000127A0076
:10131000594B1B6803F007038B420CD2564A1368E3
:1013200023F007030B431360136803F007038B429A
:1013300001D00120704770B5036813F0020F06D08A
:101340004E4A536823F0F0038468234353600C46ED
:101350000546036813F0010F52D04368012B23D0D8
:10136000022B28D0454A126812F0020F00F082804A
:1013700042494A6822F0030213434B60FEF706FF1E
:1013800006466B68012B1DD0022B2AD03B4B5B68B5
:1013900013F00C0F34D0FEF7F9FE801B41F28833B6
:1013A0009842F3D9032064E0344A126812F4003FF3
:1013B000DED101205DE0314A126812F0007FD7D102
:1013C000012056E02D4B5B6803F00C03042B17D073
:1013D000FEF7DCFE801B41F288339842F2D90320ED
:1013E00047E0264B5B6803F00C03082B08D0FEF7A0
:1013F000CDFE801B41F288339842F2D9032038E0B9
:101400001D4B1B6803F00703A3420CD91A4A13684B
:1014100023F0070323431360136803F00703A34279
:1014200001D0012025E02B6813F0040F06D0134AE9
:10143000536823F4E063E9680B4353602B6813F0AF
:10144000080F07D00D4A536823F46053296943EA13
:10145000C1035360FFF724FF084B5B68C3F303131A
:10146000074AD35CD840074B1860002002F00EFDFD
:10147000002070BD0120FCE7002002400010024067
:10148000204400081C010020014B1868704700BF71
:101490001C01002008B5FFF7F7FF044B5B68C3F39E
:1014A0000223034AD35CD84008BD00BF00100240AD
:1014B0003044000808B5FFF7E7FF044B5B68C3F34F
:1014C000C223034AD35CD84008BD00BF00100240CD
:1014D000304400080F2303600B4B5A6802F00302EC
:1014E00042605A6802F0F00282605A6802F4E062D8
:1014F000C2605B68DB0803F4E0630361034B1B68B5
:1015000003F007030B607047001002400020024008
:1015100070B582B00446036813F0010F34D03E4B1F
:10152000DB6913F0805F48D13B4BDA6942F08052AF
:10153000DA61DB6903F080530193019B0125374B8E
:101540001B6813F4807F3AD0334B1B6A13F440734B
:1015500011D0626802F440729A420CD02E4A136A8B
:1015600023F440702E4901260E6000260E601062A2
:1015700013F0010F37D1284A136A23F440736168CE
:101580000B431362002D3FD1236813F0020F06D0E6
:10159000214A536823F44043A1680B4353602368F6
:1015A00013F0100F35D01C4A536823F48003E16810
:1015B0000B435360002002B070BD0025BFE7174AFF
:1015C000136843F480731360FEF7E0FD0646134B87
:1015D0001B6813F4807FB7D1FEF7D8FD801B642809
:1015E000F5D90320E7E7FEF7D1FD06460A4B1B6A53
:1015F00013F0020FBFD1FEF7C9FD801B41F2883303
:101600009842F3D90320D6E7D36923F08053D361FE
:10161000BAE70020CFE700BF001002400070004092
:101620004004424270470268D36843F00103D3602C
:101630000268136843F0010313600020704770478D
:1016400070477047704710B5044603681A6912F076
:10165000020F11D0DA6812F0020F0DD06FF0020203
:101660001A610123037703689B6913F0030F70D09D
:10167000FFF7E6FF0023237723681A6912F0040FAF
:1016800012D0DA6812F0040F0ED06FF004021A6163
:101690000223237723689B6913F4407F5FD02046A1
:1016A000FFF7CEFF0023237723681A6912F0080F93
:1016B00012D0DA6812F0080F0ED06FF008021A612B
:1016C000042323772368DB6913F0030F4ED02046F1
:1016D000FFF7B6FF0023237723681A6912F0100F73
:1016E00012D0DA6812F0100F0ED06FF010021A61EB
:1016F000082323772368DB6913F4407F3DD020461D
:10170000FFF79EFF0023237723681A6912F0010F69
:1017100003D0DA6812F0010F36D123681A6912F08B
:10172000800F03D0DA6812F0800F34D123681A6971
:1017300012F0400F03D0DA6812F0400F32D1236864
:101740001A6912F0200F03D0DA6812F0200F30D19E
:1017500010BDFFF774FF2046FFF773FF8AE72046AE
:10176000FFF76DFF2046FFF76CFF9BE72046FFF772
:1017700066FF2046FFF765FFACE72046FFF75FFFF7
:101780002046FFF75EFFBDE76FF001021A612046B9
:1017900002F092F9C1E76FF080021A61204600F072
:1017A00063F8C3E76FF040021A612046FFF74AFF73
:1017B000C5E76FF020021A61204600F054F8C7E731
:1017C00003681B4A90420AD0B0F1804F07D0A2F5BF
:1017D0009432904203D002F58062904203D123F00C
:1017E00070034A681343124A90420AD0B0F1804F06
:1017F00007D0A2F59432904203D002F58062904265
:1018000003D123F44073CA68134323F080034A6969
:10181000134303608B68C3620B688362044B984276
:1018200002D00123436170470B690363F9E700BFEE
:10183000002C0140A8B110B5044690F83D305BB1D2
:10184000022384F83D30211D2068FFF7B9FF0123F2
:1018500084F83D30002010BD80F83C30FFF7E2FEF8
:10186000EEE7012070477047704700002DE9F8430C
:1018700005460268136923F44053C1680B431361A2
:10188000836802691343426913430168CA6822F4FA
:10189000B05222F00C021343CB600268536923F468
:1018A000407381690B4353610268594B9A4257D088
:1018B000FFF7F0FD00EB800000EB80006C68A400F7
:1018C000B0FBF4F4534FA7FB043464092601FFF77F
:1018D000E1FD00EB800000EB80006C68A400B0FB31
:1018E000F4F9FFF7D7FD00EB800000EB80006C6897
:1018F000A400B0FBF4F4A7FB043464094FF06408BF
:1019000008FB149424013234A7FB0434640904F066
:10191000F0043444FFF7BEFD00EB800000EB8000D4
:101920006E68B600B0FBF6F6FFF7B4FD00EB800082
:1019300000EB80006B689B00B0FBF3F0A7FB00306E
:10194000400908FB10684FEA081808F13208A7FBA5
:101950000837C7F343172B6827449F60BDE8F88317
:10196000FFF7A8FD00EB800000EB80006C68A4008E
:10197000B0FBF4F4274FA7FB043464092601FFF7FA
:1019800099FD00EB800000EB80006C68A400B0FBC8
:10199000F4F9FFF78FFD00EB800000EB80006C682E
:1019A000A400B0FBF4F4A7FB043464094FF064080E
:1019B00008FB149424013234A7FB0434640904F0B6
:1019C000F0043444FFF776FD00EB800000EB80006C
:1019D0006E68B600B0FBF6F6FFF76CFD00EB80001A
:1019E00000EB80006B689B00B0FBF3F0A7FB0030BE
:1019F000400908FB10684FEA081808F13208A7FBF5
:101A00000837C7F343172B6827449F60A6E700BF3A
:101A1000003801401F85EB5158B310B5044690F8CB
:101A200039300BB3242384F839302268D36823F487
:101A30000053D3602046FFF719FF2268136923F48F
:101A4000904313612268536923F02A03536122688B
:101A5000D36843F40053D3600020E063202384F86C
:101A6000393084F83A3010BD80F8383002F092F9FD
:101A7000D8E70120704784B001A880E80E0000205C
:101A800004B07047B0F8403043F43F43A0F8403012
:101A900000207047B0F8403023F474535B045B0CB3
:101AA000A0F84030002070470020704784B038B55F
:101AB00005AC84E80E000123A0F840300024A0F813
:101AC0004040A0F84440A0F85040FFF7DBFF20461C
:101AD000BDE8384004B0704710B4CB78032B0FD862
:101AE000DFE803F0026D54600A7830F822309BB2D0
:101AF00023F4EC4323F0700343F4007320F8223006
:101B00000A7830F8223023F0F0031B051B0D134335
:101B100043F4004343F0800320F822308B7A002BFB
:101B200040F0AF804B78002B56D08A885208B0F82E
:101B300050300C7803EBC40300EB43035200C3F8AE
:101B400000240A7830F8223013F0400F0BD030F820
:101B5000223023F0F0031B051B0D43F4004343F038
:101B6000C00320F822300A7830F822309BB223F4E8
:101B7000E04323F0400383F0200343F4004343F0A9
:101B8000800320F82230002010BC70470A7830F81B
:101B900022309BB223F4EC4323F070039BB220F875
:101BA0002230ADE70A7830F822309BB223F4EC43C0
:101BB00023F0700343F4C06320F82230A0E70A78D2
:101BC00030F822309BB223F4EC4323F0700343F44B
:101BD000806320F8223093E78A885208B0F85030AA
:101BE0000C7803EBC403043300EB43035200C3F847
:101BF0000024B0F850300A7803EBC203063300EB40
:101C000043030C693E2C30D9C4F34F1214F01F0F5C
:101C100001D1013A92B26FEAC2626FEA524292B2C5
:101C2000C3F800240A7830F8223013F4804F0BD028
:101C300030F8223023F0F0031B051B0D43F4404322
:101C400043F0800320F822300A7830F822309BB22B
:101C500023F4804323F0700383F4405343F40043A0
:101C600043F0800320F822308DE7C4F34F0214F0D4
:101C7000010F01D0013292B2920292B2C3F8002455
:101C8000D0E70A7830F8223023F4F8731B051B0DD7
:101C900043F4014343F0800320F82230CA885208FD
:101CA000B0F850300C7803EBC40300EB4303520050
:101CB000C3F800240A895208B0F850300C7803EBBE
:101CC000C403043300EB43035200C3F800244B78F1
:101CD000002B4BD10A7830F8223013F4804F0BD010
:101CE00030F8223023F0F0031B051B0D43F4404372
:101CF00043F0800320F822300A7830F8223013F0C5
:101D0000400F0BD030F8223023F0F0031B051B0DE1
:101D100043F4004343F0C00320F822300A7830F83F
:101D2000223023F0F0031B051B0D43F4004343F066
:101D3000C00320F822300A7830F822309BB223F416
:101D4000804323F0700383F4405348F2800423431C
:101D500020F822300A7830F822309BB223F4E04396
:101D600023F04003234320F822300CE70A7830F8B0
:101D7000223013F4804F0BD030F8223023F0F003E0
:101D80001B051B0D43F4404343F0800320F8223031
:101D90000A7830F8223013F0400F0BD030F82230A0
:101DA00023F0F0031B051B0D43F4004343F0C00375
:101DB00020F822300A7830F8223023F0F0031B0597
:101DC0001B0D43F4404343F0800320F822300B788E
:101DD00030F8232092B222F4E04222F0400248F28E
:101DE0008004224320F823200A7830F822309BB266
:101DF00023F4804323F07003234320F82230C2E60B
:101E00008B7A002B44D14B780BB30A7830F8223010
:101E100013F0400F0BD030F8223023F0F0031B05F5
:101E20001B0D43F4004343F0C00320F822300A782E
:101E300030F822309BB223F4E04323F0400343F414
:101E4000004343F0800320F82230002070470A78D6
:101E500030F8223013F4804F0BD030F8223023F0CA
:101E6000F0031B051B0D43F4404343F0800320F8AF
:101E700022300A7830F822309BB223F4804323F0DA
:101E8000700343F4004343F0800320F82230DCE782
:101E900010B44B78002B4BD10A7830F8223013F471
:101EA000804F0BD030F8223023F0F0031B051B0DC0
:101EB00043F4404343F0800320F822300A7830F89E
:101EC000223013F0400F0BD030F8223023F0F00313
:101ED0001B051B0D43F4004343F0C00320F82230E0
:101EE0000A7830F8223023F0F0031B051B0D43F471
:101EF000004343F0C00320F822300B7830F8232051
:101F000092B222F4804222F0700248F2800422430E
:101F100020F823200A7830F822309BB223F4E043E3
:101F200023F04003234320F82230002010BC7047E8
:101F30000A7830F8223013F4804F0BD030F822307A
:101F400023F0F0031B051B0D43F4404343F08003D3
:101F500020F822300A7830F8223013F0400F0BD0EE
:101F600030F8223023F0F0031B051B0D43F400432F
:101F700043F0C00320F822300A7830F8223023F0F2
:101F8000F0031B051B0D43F4404343F0800320F88E
:101F900022300B7830F8232092B222F4E04222F073
:101FA000400248F28004224320F823200A7830F8C7
:101FB00022309BB223F4804323F07003234320F8A4
:101FC0002230B2E70A788AB14B7813BB30F822305E
:101FD0009BB223F4804323F0700383F4805343F4D3
:101FE000004343F0800320F8223010E030F8223024
:101FF0009BB223F4804323F0400383F4805383F0A7
:10200000100343F4004343F0800320F82230002003
:10201000704730F822309BB223F4E04323F04003B2
:1020200083F0100343F4004343F0800320F8223090
:10203000EDE74B781BB30A7830F8223013F0400FED
:102040000BD030F8223023F0F0031B051B0D43F4B6
:10205000004343F0C00320F822300A7830F82230E1
:102060009BB223F4E04323F0400383F0300343F4B6
:10207000004343F0800320F82230002070470A78A4
:1020800030F8223013F4804F0BD030F8223023F098
:10209000F0031B051B0D43F4404343F0800320F87D
:1020A00022300A7830F822309BB223F4804323F0A8
:1020B000700383F4405343F4004343F0800320F85B
:1020C0002230DAE711B98023A0F84C3000207047A5
:1020D0000020704700207047B0F84400704700208F
:1020E000704701335B1000EB420202F5806263B17E
:1020F00010B40C78487844EA002422F8044B0231EA
:10210000013B002BF5D110BC70477047F8B58A69C8
:102110004D78012D34D00B69934280F0EA80D21AB9
:102120008A618A7A002A40F0F480B0F850200C7856
:1021300002EBC402063200EB42023E2B40F2DD808D
:10214000C3F34F1413F01F0F01D1013CA4B26FEA87
:10215000C4646FEA5444A4B2C2F800440A7830F868
:1021600022309BB223F4804323F0700383F4405366
:1021700043F4004343F0800320F822300020F8BDF0
:102180000F69974225D2D21B8A610E4604468B7A8C
:102190001BB30B7830F8232012F0400F69D0002DCC
:1021A00037D1B0F8502002EBC303063300EB4303F2
:1021B0003E2F22D9C7F34F1217F01F0F01D1013A5A
:1021C00092B26FEAC2626FEA524292B2C3F800243E
:1021D00028E000238B611746D7E7BBB28A8849699C
:1021E000FFF77FFFB4F85030327803EBC2030233BD
:1021F00004EB4303C3F800742AE0C7F34F0217F05F
:10220000010F01D0013292B2920292B2C3F80024BF
:1022100008E0B0F8502002EBC303023300EB4303A5
:10222000C3F800743289BBB271692046FFF759FFC9
:102230007378002B4DD1327834F8223023F0F0033C
:102240001B051B0D43F4004343F0C00324F8223068
:10225000327834F822309BB223F4E04323F0400379
:1022600083F0300343F4004343F0800324F822302A
:1022700084E71DBBB0F8502002EBC303023300EB30
:1022800043033E2F0ED9C7F34F1217F01F0F01D192
:10229000013A92B26FEAC2626FEA524292B2C3F856
:1022A000002414E0C7F34F0217F0010F01D00132F0
:1022B00092B2920292B2C3F8002408E0B0F8502023
:1022C00002EBC303023300EB4303C3F80074F2884C
:1022D000A9E7012BBCD1327834F8223023F0F00387
:1022E0001B051B0D43F4404343F0800324F82230C8
:1022F000AEE700238B61134613E7C3F34F0413F0DB
:10230000010F01D00134A4B2A402A4B2C2F8004467
:1023100024E7BDB9B0F850200C7802EBC4020232B9
:1023200000EB42023E2B28D9C3F34F1413F01F0FCA
:1023300001D1013CA4B26FEAC4646FEA5444A4B270
:10234000C2F800444A7882BBB0F850200C7802EB07
:10235000C402063200EB42023E2B1AD9C3F34F14DB
:1023600013F01F0F01D1013CA4B26FEAC4646FEAFD
:102370005444A4B2C2F80044F0E6C3F34F0413F08F
:10238000010F01D00134A4B2A402A4B2C2F80044E7
:10239000D8E7C3F34F0413F0010F01D00134A4B206
:1023A000A402A4B2C2F80044D8E6012A7FF4D6AE53
:1023B000B0F850200C7802EBC402023200EB42026B
:1023C000C2F80034CAE601335B1000EB420202F5AA
:1023D000806204E0106821F8020B013B0432002BFC
:1023E000F8D17047D0F818321BB10020C3F814029E
:1023F00070470220704710B5D0F81842D0F81C3250
:102400005BB194F80002FF2807D09B6894F8012282
:1024100021469847FF2384F80032002010BD0000B9
:1024200043230380004870470800002043230380B3
:10243000004870474C000020432303800048704749
:10244000900000200A23038000487047D400002039
:1024500038B50446D0F8185201F00AFFC5F80C024E
:10246000D4F818324BB1D4F81C32DB6805F503718F
:10247000D5F804029847002038BD0220FCE7000090
:1024800070B505460C46D0F818620B7813F0600260
:1024900025D0202A07D1CA883AB9D0F81C329B68C7
:1024A000002248789847002070BD13F0800F0BD0B1
:1024B000D0F81C329B68314660789847E2883146F4
:1024C000284600F059FCEEE74B7886F80032CB88BE
:1024D00086F80132CA88314600F063FCE3E74B78A6
:1024E0000A2BE0D10122024900F046FCDBE700BFE5
:1024F0008001002010B50446812101F052FE012127
:10250000204601F04EFE8221204601F04AFED4F81A
:10251000183253B1D4F81C325B689847D4F81802CB
:1025200001F0B0FE0023C4F81832002010BD38B509
:102530000446037C73BB4FF400730222812101F037
:102540001FFE4FF4007302220121204601F018FE05
:10255000082303228221204601F012FE4FF4077067
:1025600001F08CFE0546C4F8180248B3D4F81C32BA
:102570001B6898470023C5F81432C5F81832237C2D
:10258000A3B14023D5F804220121204601F062FEC8
:10259000002038BD40230222812101F0F1FD4023BB
:1025A00002220121204601F0EBFDD1E74FF4007338
:1025B000D5F804220121204601F04CFE0020E8E776
:1025C0000120E6E719B1C0F81C1200207047022074
:1025D0007047D0F81832C3F80812C3F81022002050
:1025E0007047D0F81832C3F8041200207047D0F8B2
:1025F00018229AB108B5037C3BB14023D2F80422DB
:10260000012101F027FE002008BD4FF40073D2F82D
:102610000422012101F01EFE0020F5E70220704790
:1026200098B108B50346D0F8140210B10020C3F8E1
:10263000140209B1C3F810121846012380F8FC31C6
:10264000027001F045FD002008BD0220704719B15D
:10265000C0F81412002070470220704708B501F03E
:1026600081FD002008BD08B5D0F8143233B11B68D5
:10267000984708B9002008BD0220FCE70220FAE7CD
:1026800008B5D0F814325B689847002008BD38B50B
:10269000044600F50275284600F00CF90123C4F841
:1026A000F431B4F80E32C4F8F83194F8081201F09D
:1026B0001F03012B0ED03BB1022B10D001F0800183
:1026C000204601F07CFD03E02946204600F06BFA2D
:1026D000002038BD2946204600F089FAF8E729464F
:1026E000204600F0A0FAF3E710B5044621BB1346DC
:1026F000D0F8F421032A01D0002010BDD0F80C112D
:10270000D0F8102191420CD8D0F814321B6923B1B3
:1027100090F8FC21032A00D19847204600F058FB8E
:10272000EAE7891AC0F80C118A4228BF0A4692B219
:10273000194600F045FBDFE70A46D0F814329B69E2
:10274000002BD9D090F8FC110329D5D11146984718
:10275000D2E710B50446002946D11346D0F8F4213B
:10276000022A05D094F80032012B39D0002010BD88
:10277000C169026A914219D88169B1FBF2F302FB87
:1027800013132BB98A4203D8D0F8F83199421AD3DF
:10279000D4F81432DB682BB194F8FC21032A01D160
:1027A00020469847204600F01EFBDBE78A1AC261EC
:1027B00092B2194600F0EDFA00231A461946204657
:1027C00001F048FDCEE70022114600F0E2FA0021B8
:1027D000C4F8F8110B460A46204601F03BFDC1E75C
:1027E000002384F80032C1E70A46D0F814325B694E
:1027F000002BBBD090F8FC110329B7D111469847A4
:10280000B4E738B5044640230022114601F0B8FC75
:102810004025C4F810512B4600228021204601F0AB
:10282000AFFC2562012384F8FC31D4F818322BB1B7
:10283000D4F814325B68217920469847002038BDCF
:1028400001740020704790F8FC3180F8FD310423BA
:1028500080F8FC310020704790F8FD3180F8FC31A1
:102860000020704708B590F8FC31032B01D0002000
:1028700008BDD0F81432DB69002BF8D09847F6E792
:10288000002302E00133DBB201300278002AF9D1E3
:10289000184670474B88012B0BD110B50446C0F881
:1028A0000432D0F814329B689847204600F090FA22
:1028B00010BD70470B7803704B7843708B78CA78E3
:1028C00003EB022343800B794A7903EB02238380D5
:1028D0008B79CA7903EB0223C380704710B5044695
:1028E000802101F06CFC0021204601F068FC10BD45
:1028F00030B583B004460D464A88130A013B062BC7
:1029000000F28180DFE803F00413277F7F6370000B
:10291000D0F810321B680DF10601007C9847BDF815
:10292000062012B1EB88002B71D103B030BD037CBF
:1029300043B9D0F814329B6A0DF106009847022380
:102940004370ECE7D0F81432DB6A0DF106009847CB
:1029500002234370E3E7D2B2052A34D8DFE802F05D
:10296000030B131B232BD0F810325B680DF106010B
:10297000007C9847D3E7D0F810329B680DF1060130
:10298000007C9847CBE7D0F81032DB680DF10601E8
:10299000007C9847C3E7D0F810321B690DF106019F
:1029A000007C9847BBE7D0F810325B690DF1060157
:1029B000007C9847B3E7D0F810329B690DF106010F
:1029C000007C9847ABE72946FFF788FFADE7037C1B
:1029D00033B9D0F814325B6B0DF1060098479EE7CF
:1029E0002946FFF77BFFA0E7037C43B9D0F81432F8
:1029F0001B6B0DF106009847072343708FE72946AC
:102A0000FFF76CFF91E72946FFF768FF8DE79A42D1
:102A100028BF1A46ADF806200146204600F0ACF962
:102A200083E738B504468B88E3B9CB88D3B98D7872
:102A300005F07F0590F8FC31032B0CD080F8FE5197
:102A4000294601F0EBFB204600F0C2F935B1022324
:102A500084F8FC3109E0FFF741FF06E0012384F828
:102A6000FC3102E02046FFF739FF38BD38B5044697
:102A70000D468978254B1970012909D890F8FC3149
:102A8000022B09D0032B1CD02946FFF727FF02E0B9
:102A90002946FFF723FF38BD81B14160032380F849
:102AA000FC31FFF7E0FD022803D0204600F090F94A
:102AB000F1E729462046FFF711FFECE700F088F91F
:102AC000E9E789B1436899421DD0D9B2FFF7D8FD33
:102AD0000E4B197861602046FFF7C5FD02280DD026
:102AE000204600F075F9D6E7022380F8FC314160FA
:102AF000FFF7C6FD204600F06BF9CCE729462046DB
:102B0000FFF7ECFEC7E700F063F9C4E7810100209E
:102B100008B5CB88012B08D190F8FC31022B07D0E7
:102B2000032B0DD0FFF7DAFE01E0FFF7D7FE08BD5B
:102B30000146002341F8083F012200F01DF9F6E7A5
:102B40000122011D00F018F9F1E708B590F8FC31F9
:102B5000023B012B0CD80123C360D0F804320BB127
:102B60000323C360022200F10C0100F005F908BD47
:102B7000FFF7B4FEFBE710B5044690F8FC31023BCA
:102B8000012B0DD84B88012B09D10023C0F804324A
:102B9000D0F814329B689847204600F019F910BD10
:102BA000FFF79CFEFBE708B54B78092B1CD8DFE844
:102BB00003F012181B151B09051B0F0CFFF798FEDD
:102BC000002008BDFFF72DFFFAE7FFF74FFFF7E7FB
:102BD000FFF79EFFF4E7FFF7B8FFF1E7FFF75AFEB4
:102BE000EEE7FFF7C8FFEBE7FFF778FEE8E738B559
:102BF00004460D4690F8FC31032B11D10B79012BC3
:102C00000BD8D0F814329B689847EB880BB10020A2
:102C100038BD204600F0DCF8F9E7FFF75FFEF6E785
:102C2000FFF75CFEF3E738B505460C468A880B785B
:102C300003F06003202B05D1D0F814329B6898472D
:102C4000002038BDD1B26378012B25D0002B47D0AE
:102C5000032BF5D190F8FC31022B05D0032B0AD0C1
:102C60002146FFF73BFEEBE70029E9D08029E7D0BA
:102C700001F0A5FAE4E7638823B919B1802901D0EE
:102C800001F09DFAD5F814329B68214628469847F2
:102C9000284600F09DF8D3E790F8FC31022B05D0D0
:102CA000032B0AD02146FFF719FEC9E70029C7D038
:102CB0008029C5D001F083FAC2E76388002BBFD119
:102CC00011F07F0F03D1284600F082F8B8E701F039
:102CD00084FAD5F814329B68214628469847F2E7D3
:102CE00090F8FC31022B05D0032B09D02146FFF7C9
:102CF000F5FDA5E711F07F0FA2D001F060FA9FE784
:102D000012F0800F11D101F07F04103400EB041495
:102D10000434284601F06FFA70B1012323600222C7
:102D20002146284600F028F88AE701F07F040134A4
:102D300000EB04140434ECE700232360EFE7D0B188
:102D400070B50D4616460446FFF79AFD0130400067
:102D500080B23080287003236B70022307E00134B7
:102D60005A1CD2B2E9540233DBB20021A9542178B3
:102D70000029F4D170BD704710B513460222C0F887
:102D8000F4218361C3610A46002101F055FA002055
:102D900010BD08B513460A46002101F04DFA002087
:102DA00008BD10B513460322C0F8F421C0F808315D
:102DB000C0F80C310A46002101F04CFA002010BD89
:102DC00008B513460A46002101F044FA002008BD68
:102DD00008B50423C0F8F43100231A46194601F05F
:102DE0002BFA002008BD08B50523C0F8F4310023F4
:102DF0001A46194601F02EFA002008BD842801D099
:102E0000033070470020704708B500F0C9F9002072
:102E100008BDF0B585B00F46446805680669B0F98D
:102E20000800FFF7EBFF03AB019300903B46B2B203
:102E30002946204600F082F9012802D1039805B006
:102E4000F0BD0020FBE708B5034600B90123184692
:102E500000F0E8FA002008BD08B500F08FFB01285B
:102E600001D000F04FFC08BD00F1080343604FF0B3
:102E7000FF328260C3600361002303607047002358
:102E80000361704743684B609A688A609A68516032
:102E900099600861036801330360704730B40D68BE
:102EA000B5F1FF3F02D000F1080202E0026904E040
:102EB0001A4653681C68AC42FAD953684B60996053
:102EC0008A605160086103680133036030BC704759
:102ED00003694268816891608268416851605A68FC
:102EE000824205D0002202611868013818607047DC
:102EF00082685A60F6E70000074B9B6A1B6833B193
:102F0000054B9A6AD268D2685268DA627047024BFF
:102F10004FF0FF32DA6270478401002010B504469A
:102F2000006B00F03FFD204600F03CFD10BD2DE998
:102F3000F04780469946089D099F0A9C266B02F13E
:102F40008042013A06EB820626F0070600230F2B8B
:102F500007D8C85CE21882F83400CA5C0AB10133B1
:102F6000F5E7002384F84330062D00D90625E562F5
:102F700065644FF0000AC4F848A0201DFFF77FFFEA
:102F800004F11800FFF77BFF2461C5F10705A56177
:102F90006462C4F84CA084F850A04A4641463046CA
:102FA00000F026FB206007B13C60BDE8F087000020
:102FB00070B5002407E004EB840293001048184425
:102FC000FFF752FF0134062CF5D90E4C04F1BC0674
:102FD0003046FFF749FF04F1D0052846FFF744FFCC
:102FE00004F11400FFF740FF04F1E400FFF73CFF99
:102FF0002046FFF739FFA662C4F8F85070BD00BF45
:10300000B40100208401002038B5054600F01AFB09
:10301000264BD3F8FC200132C3F8FC20D3F8003152
:1030200073B1224BD3F804318BB9204BD3F8003164
:10303000DA6AEB6A9A420AD81C4BC3F8005106E0E0
:103040001A4BC3F80051D3F8FC30012B2AD0174C8F
:10305000D4F808310133C4F80831EB6A01229A40F0
:10306000D4F80C110A43C4F80C2104F1300003EB2E
:1030700083039A00291D1044FFF704FF00F004FBAE
:10308000D4F804316BB1D4F80031DA6AEB6A9A42B1
:1030900007D2074B4FF080521A60BFF34F8FBFF338
:1030A0006F8F38BDFFF784FFD1E700BF8401002098
:1030B00004ED00E070B504460E461F4BD3F81051E6
:1030C000D3F800010430FFF703FF60B91A4BD3F8BF
:1030D0000021D16A012202FA01F1D3F80C2122EA7F
:1030E0000102C3F80C21B4F1FF3F12D02C44124B63
:1030F000D3F800315C60A54214D80F4DA86AD5F80A
:1031000000110431FFF7CAFEEB6AA34212D9EC6248
:1031100010E0002EEAD00848D0F800110431FFF783
:10312000B1FE07E0044BD3F8F800D3F800110431E6
:10313000FFF7B4FE70BD00BF840100202DE9F0430D
:1031400085B00746884615469946900000F0A4FBD6
:10315000F8B10646542000F09FFB0446A8B1066370
:10316000D4B10023039302940D9B01930C9B009315
:103170004B462A4641463846FFF7D9FE2046FFF720
:1031800043FF012005B0BDE8F083304600F00AFCA3
:10319000E6E74FF0FF30F5E74FF0FF30F2E70000D1
:1031A00000B583B0174B019300230093802216498A
:1031B0001648FFF7C3FF012805D0B0F1FF3F17D035
:1031C00003B05DF804FB4FF0500383F31188BFF3A5
:1031D0006F8FBFF34F8F0E4B4FF0FF32DA62012239
:1031E000C3F804210022C3F8102100F0B7FAE7E782
:1031F0004FF0500383F31188BFF36F8FBFF34F8FEE
:10320000FEE700BFA002002038440008C5340008D3
:1032100084010020034AD2F818310133C2F8183172
:10322000704700BF840100202DE9F041404BD3F8E6
:103230001831002B6CD13E4BD3F810510135C3F837
:103240001051CDB99B6A1B6843B14FF0500383F313
:103250001188BFF36F8FBFF34F8FFEE7344B9A6A2D
:10326000D3F8F8109962C3F8F820D3F8202101327E
:10327000C3F82021FFF740FE2D4BDB6AAB423DD95E
:1032800000242B4AD2F80031DB6A03EB8303990058
:103290000A44136B012B42D9012440E00124244B42
:1032A0009B6A1B6863B3224B9B6ADB68DE687368AA
:1032B0009D422AD306F104084046FFF709FEB36A8F
:1032C0001BB106F11800FFF703FEF36A01229A40D2
:1032D000174FD7F80C110A43C7F80C2107F130003B
:1032E00003EB83039A0041461044FFF7CBFDF26ADB
:1032F000D7F80031DB6A9A42D0D2D0E70024CEE77B
:103300000B4B4FF0FF32DA62BBE7094AD362B8E7F2
:10331000074AD2F824310133C2F824310024044B87
:10332000D3F8283103B101242046BDE8F08100BF65
:1033300084010020394BD3F8183143B94FF05003C2
:1033400083F31188BFF36F8FBFF34F8FFEE770B524
:1033500000F078F9314BD3F81821013AC3F818215D
:10336000D3F81831002B54D12C4BD3F8FC3023B9AF
:10337000002400F089F9204670BD0024274B5B69CA
:103380002BB3264D2B6ADC6804F11800FFF7A0FD73
:10339000261D3046FFF79CFDE36A01229A40D5F8CE
:1033A0000C110A43C5F80C2105F1300003EB83032F
:1033B0009A0031461044FFF765FDE26AD5F8003106
:1033C000DB6A9A42DAD30122C5F82821D6E70CB18C
:1033D000FFF792FD114BD3F8244164B1FFF724FFAE
:1033E00018B10E4B0122C3F82821013CF6D10B4B3A
:1033F0000022C3F82421094BD3F828315BB1084BD4
:103400004FF080521A60BFF34F8FBFF36F8F0124CC
:10341000AFE70024ADE70024ABE700BF8401002044
:1034200004ED00E010B5B0B104460F4BD3F81831ED
:1034300043B14FF0500383F31188BFF36F8FBFF395
:103440004F8FFEE7FFF7E6FE00212046FFF732FE32
:10345000FFF770FF38B9054B4FF080521A60BFF389
:103460004F8FBFF36F8F10BD8401002004ED00E08B
:1034700038B5134BD3F814310BB3FFF7CBFE104B19
:10348000D3F8E440FFF756FF002CF2D000F0DAF852
:103490000B4CD4F8F030DD68281DFFF719FDD4F887
:1034A000FC30013BC4F8FC30D4F81431013BC4F8C3
:1034B000143100F0E9F82846FFF730FDD9E738BDB0
:1034C0008401002008B5FFF7D3FF064B1B6B012BCF
:1034D000F9D9054B4FF080521A60BFF34F8FBFF3FD
:1034E0006F8FF0E78401002004ED00E0224BD3F859
:1034F000183123B1204B0122C3F8282170471E4AFE
:103500000023C2F82831D2F80C31B3FA83F3DBB2CE
:10351000C3F11F0303EB830081000A44126B42B91D
:103520004FF0500383F31188BFF36F8FBFF34F8FBA
:10353000FEE710B4104A9900CC18A0001044446B68
:10354000646844633032194488000830024494426D
:103550000AD0094903EB83039A000A44536BDB68E2
:10356000C1F8003110BC704761680348142202FBA7
:1035700003025163EDE700BF84010020064BD3F83E
:1035800004313BB1044BD3F818310BB10020704724
:103590000220704701207047840100200B4B1B68FC
:1035A000B3F1FF3F08D04FF0500383F31188BFF30E
:1035B0006F8FBFF34F8FFEE74FF0500383F31188F7
:1035C000BFF36F8FBFF34F8FFEE700BF18010020DE
:1035D00006480068006880F3088862B661B6BFF3E9
:1035E0004F8FBFF36F8F00DF00BF000008ED00E0DA
:1035F0004FF0807340F8043C21F0010140F8081CB2
:10360000034B40F80C3C40F8202C4038704700BF7A
:103610009D350008000000000000000000000000D0
:10362000074B19680868B0E8F00F80F30988BFF30A
:103630006F8F4FF0000080F311884EF00D0E704731
:10364000840200204FF0500383F31188BFF36F8F83
:10365000BFF34F8F0A4A136801331360012B00D068
:103660007047084B1B6813F0FF0FF9D04FF0500361
:1036700083F31188BFF36F8FBFF34F8FFEE700BF57
:103680001801002004ED00E0094B1B6843B94FF01E
:10369000500383F31188BFF36F8FBFF34F8FFEE7A3
:1036A000013B034A13600BB983F31188704700BFD5
:1036B00018010020000000000000000000000000D1
:1036C000EFF30980BFF36F8F0D4B1A6820E9F00FFD
:1036D00010602DE908404FF0500080F31188FFF78B
:1036E00005FF4FF0000080F31188BDE8084019681D
:1036F0000868B0E8F00F80F30988BFF36F8F704758
:103700008402002008B54FF0500383F31188BFF303
:103710006F8FBFF34F8FFFF787FD18B1034B4FF04B
:1037200080521A60002383F3118808BD04ED00E085
:10373000064B1B68064AA2FB03239B09013B054A73
:103740001360054B07221A60704700BF1C01002060
:10375000D34D621014E000E010E000E000B583B04B
:103760001E4B1A78D2B20192FF221A701B78DBB27C
:103770008DF803309DF8033003F05003184A13709E
:103780000723536009E0164A5368013B53609DF8D4
:1037900003305B00DBB28DF803309DF8033013F08B
:1037A000800FF0D10E4A53681B0203F4E0635360AC
:1037B000019BDBB2094A13700A4B1A6842F470028B
:1037C0001A601A6842F070421A60FFF7B1FF064BA8
:1037D00000221A60FFF7FCFEFFF7E0FE00E400E0C5
:1037E000B002002020ED00E018010020134A12F082
:1037F000070F20D0D11D21F00701C1F5406313440C
:103800000A460E49C1F8002C0020C1F8040C1344EC
:10381000083B23F00703C1F8083C58601860981A69
:1038200050601360C1F80C0CC1F8100C4FF000434D
:10383000C1F8143C70474FF44063E2E7B80200203F
:1038400010B4134B1A6882421BD359685C18844227
:1038500003D1406801445960184641684418A242A7
:1038600013D10C4CD4F8084CA2420CD0526811442D
:1038700041601A6812680260984200D0186010BC5B
:1038800070471346DEE70460F6E70260F4E700BF26
:10389000B80E0020B802002070B50446FFF7BAFC4D
:1038A0003F4BD3F8083CC3B13D4BD3F8143C1C420A
:1038B0006CD1ACB1083414F0070F11D024F0070418
:1038C000083404F007035BB14FF0500383F3118811
:1038D000BFF36F8FBFF34F8FFEE7FFF787FFE3E77D
:1038E000002C55D02E4BD3F8103CA34252D32C4B76
:1038F000D3F8005C03F5406301E02B4615466A6887
:10390000A24202D22A68002AF7D1254AD2F8082C0E
:10391000AA4241D01E6808362A681A606B681B1BD1
:10392000102B10D9281910F0070F08D04FF05003B2
:1039300083F31188BFF36F8FBFF34F8FFEE74360B0
:103940006C60FFF77DFF6968154AD2F8103C5B1A7E
:10395000C2F8103CD2F80C2C934202D2104AC2F8A2
:103960000C3C0F4BD3F8143C0B436B6000232B60D3
:10397000FFF7E0FC16F0070F10D04FF0500383F371
:103980001188BFF36F8FBFF34F8FFEE70026EFE77D
:103990000026EDE70026EBE70026E9E7304670BD9C
:1039A000B802002098B338B50446A0F1080550F8D5
:1039B000042C1749D1F8141C0A4208D14FF05003C7
:1039C00083F31188BFF36F8FBFF34F8FFEE750F87B
:1039D000080C40B14FF0500383F31188BFF36F8F91
:1039E000BFF34F8FFEE722EA010244F8042CFFF7F1
:1039F00011FC54F8041C064AD2F8103C0B44C2F8DF
:103A0000103C2846FFF71CFFFFF794FC38BD7047B9
:103A1000B802002010B588B01F4B9A6942F010021E
:103A20009A619A6902F010020092009A9A6942F033
:103A300020029A619A6902F020020192019A9A6921
:103A400042F004029A619A6902F004020292029A18
:103A50009A6942F008029A619B6903F00803039394
:103A6000039B4FF4604304930324059404A90B487B
:103A7000FCF70AFC48F2F3130493059404A90848E0
:103A8000FCF702FC4FF23F330493059404A9054868
:103A9000FCF7FAFB08B010BD001002400010014016
:103AA00000080140000C014008B500F06BFA01204D
:103AB000FFF7C9F9FBE7000008B50268034B9A421B
:103AC00000D008BDFCF756FBFBE700BF002C01400F
:103AD000FEE7000008B50B480B4B03600B4B43603F
:103AE00000238360C3604FF48042026143618361BD
:103AF000C3610362FCF7B2FC00B908BDFA210448B7
:103B0000FFF7E6FF3811002000540040A0860100B6
:103B10004044000808B50B480B4B03604FF4E133F9
:103B2000436000238360C36003610C2242618361B0
:103B3000C361FDF771FF00B908BD40F20D110348E4
:103B4000FFF7C6FF7415002000380140404400080C
:103B500008B50B480B4B03604FF4E133436000237F
:103B60008360C36003610C2242618361C361FDF71E
:103B700053FF00B908BD4FF490710348FFF7A8FF49
:103B80009C190020004400404044000808B50B4840
:103B90000B4B03604FF4E133436000238360C36049
:103BA00003610C2242618361C361FDF735FF00B9F7
:103BB00008BD40F233110348FFF78AFFF8100020D8
:103BC000004800404044000800B595B001220A9228
:103BD0004FF480330B9300210C910E92022211922C
:103BE00012934FF4E01313930AA8FDF76BF948BB47
:103BF0000F23059302210691002307934FF480625F
:103C00000892099305A8FDF783FBF8B910230193E7
:103C10000023049301A8FDF77BFCD8B9FDF734FC21
:103C20000E4BA3FB00308009FCF708FB0420FCF7D7
:103C30001BFB00220F214FF0FF30FCF7BFFA15B03D
:103C40005DF804FBC7210648FFF742FFD521044871
:103C5000FFF73EFFDC210248FFF73AFFD34D621029
:103C60004044000800B587B0FCF772FAFFF7ACFFDC
:103C7000FFF7D0FEFFF72EFFFFF74CFFFFF768FFBF
:103C8000FFF784FF01AC074D0FCD0FC42B682360F5
:103C9000002101A8FFF7BDF8034B1860FFF7B4F847
:103CA000FEE700BF0C440008F410002000B583B00C
:103CB000244B9A6942F001029A619A6902F001026A
:103CC0000092009ADA6942F08052DA61DB6903F00F
:103CD00080530193019B0320FCF75EFA00221146FA
:103CE0006FF00B00FCF76AFA002211466FF00A0031
:103CF000FCF764FA002211466FF00900FCF75EFA47
:103D0000002211466FF00400FCF758FA0022114619
:103D10006FF00300FCF752FA00220F216FF0010050
:103D2000FCF74CFA00220F214FF0FF30FCF746FA67
:103D3000054A536823F0E06343F00073536003B017
:103D40005DF804FB001002400000014002680E4BC9
:103D50009A4200D0704700B587B0C0230293122367
:103D600003930323059302A90848FCF78DFA084B37
:103D7000DA6942F40012DA61DB6903F4001301939B
:103D8000019B07B05DF804FB00540040000C0140AB
:103D90000010024010B588B00368364A934207D03D
:103DA000354A934225D0354A934241D008B010BDE0
:103DB000334B9A6942F480429A619B6903F48043D1
:103DC0000193019B4FF40073049302230593032393
:103DD00007932C4C04A92046FCF756FA4FF4806355
:103DE000049300230593069304A92046FCF74CFA9C
:103DF000DCE7234BDA6942F40032DA61DB6903F471
:103E000000330293029B04230493022305930323AC
:103E100007931C4C04A92046FCF736FA08230493A8
:103E200000230593069304A92046FCF72DFABDE76D
:103E3000134BDA6942F48022DA61DB6903F48023F0
:103E40000393039B4FF4806304930223059303239E
:103E500007930D4C04A92046FCF716FA4FF40063B3
:103E6000049300230593069304A92046FCF70CFA5B
:103E70009CE700BF0038014000440040004800407B
:103E80000010024000080140000C014000B589B05C
:103E9000002201461920FCF791F91920FCF7C2F91C
:103EA000144B9A6942F400629A619B6903F40063BF
:103EB0000193019B02A903A8FDF70CFBFDF7FAFA99
:103EC0000D4BA3FB00239B0C013B0C480C4A0260EA
:103ED00040F2E732C2604360002303618360FDF774
:103EE000A9FC18B1012009B05DF804FB0348FDF7F7
:103EF0009AFBF8E70010024083DE1B43C41D00203C
:103F0000002C01407047FEE7FEE7FEE7FEE7704742
:103F100008B5FEF7A1FF08BD08B50248FCF79EFEF4
:103F200008BD00BFF827002008B50248FDF78BFB4D
:103F300008BD00BFC41D00200F4B1A6842F00102EB
:103F40001A6059680D4A0A405A601A6822F0847251
:103F500022F480321A601A6822F480221A605A68A9
:103F600022F4FE025A604FF41F029A60044B4FF095
:103F700000629A60704700BF001002400000FFF826
:103F800000ED00E010B5094C002209492046FEF77B
:103F900047FB08492046FEF75AFB07492046FEF733
:103FA00011FB2046FEF75AFB10BD00BF041E002087
:103FB00048010020E0000020200100200020704780
:103FC0000020704710B5054C01462046FEF709FB5E
:103FD0002046FEF70CFB002010BD00BF041E002091
:103FE00010B5064C002206492046FEF7F2FA0549B4
:103FF0002046FEF7F6FA002010BD00BF041E002088
:10400000102400202820002002680E4B9A4200D085
:10401000704700B583B003F5DA33DA6942F4000281
:10402000DA61DB6903F400030193019B002205219F
:104030001420FCF7C3F81420FCF7F4F803B05DF883
:1040400004FB00BF005C004008B500F22C41D0F832
:104050005C04FEF71CFB08BD08B500EB4113D3F868
:104060003C22D0F85C04FEF73FFB08BD08B500EB2E
:104070004113DA6BD0F85C04FEF76BFB08BD08B5A2
:10408000D0F85C04FEF7EEFB08BD10B50446012134
:10409000D0F85C04FEF7D4FBD4F85C04FEF7B1FB67
:1040A00010BD000010B50446D0F85C04FEF7CBFB51
:1040B000A36923B1024A136943F00603136110BDDB
:1040C00000ED00E008B5D0F85C04FEF7C5FB08BDC4
:1040D00010B504462048C0F85C44C4F820021F4BC9
:1040E000036008234360022383600323C36000232B
:1040F0008361C3610362FCF765FA30BB18230022B9
:104100001146D4F82002FCF7AEFE5823002280218D
:10411000D4F82002FCF7A7FEC02300228121D4F8A6
:104120002002FCF7A0FE4FF4887300220121D4F88E
:104130002002FCF798FE4FF4807300228221D4F80D
:104140002002FCF790FE002010BD4FF49771044848
:10415000FFF7BEFCD2E700BFF8270020005C00405C
:104160005C44000808B5D0F82002FCF796FA18B1B4
:10417000022803D0022008BD0020FCE70120FAE756
:1041800010B51C4613462246D0F82002FCF7B0FAC0
:1041900018B1022803D0022010BD0020FCE7012046
:1041A000FAE708B5D0F82002FCF7CBFA18B10228DC
:1041B00003D0022008BD0020FCE70120FAE708B583
:1041C000D0F82002FCF7FAFD18B1022803D0022033
:1041D00008BD0020FCE70120FAE708B5D0F820026E
:1041E000FCF71AFE18B1022803D0022008BD0020F7
:1041F000FCE70120FAE7D0F8203211F0800F06D159
:1042000001F07F0103EB411191F82A02704701F0A0
:104210007F0103EB411191F82A00704708B5D0F8EF
:104220002002FCF751FA18B1022803D0022008BD81
:104230000020FCE70120FAE708B5D0F82002FCF7DF
:10424000CDFA18B1022803D0022008BD0020FCE7F7
:104250000120FAE708B5D0F82002FCF799FA18B166
:10426000022803D0022008BD0020FCE70120FAE765
:1042700008B5D0F82002FCF7AAFA08BD004870473C
:10428000D00E00207047704712230B800048704703
:104290003001002004230B800048704744010020B7
:1042A00008B50A4628B105490548FEF748FD034808
:1042B00008BD02490248FEF742FDF8E7582C0020ED
:1042C0007044000810B5044C0A4621460348FEF726
:1042D00036FD204610BD00BF582C00208844000841
:1042E00008B50A4628B105490548FEF728FD0348E8
:1042F00008BD02490248FEF722FDF8E7582C0020CD
:104300009C44000808B50A4628B105490548FEF74F
:1043100016FD034808BD02490248FEF710FDF8E704
:10432000582C0020AC44000808B50A4628B10549BD
:104330000548FEF704FD034808BD02490248FEF7A0
:10434000FEFCF8E7582C0020B8440008002103E0E8
:104350000B4B5B58435004310A480B4B42189A42AE
:10436000F6D30A4A02E0002342F8043B084B9A4283
:10437000F9D3FFF7E1FD00F00FF8FFF773FC70478A
:10438000D0440008000000206401002064010020E7
:10439000582E0020FEE7000070B500250C4E0D4C95
:1043A000A41BA410A54209D100F01AF800250A4E5A
:1043B0000A4CA41BA410A54205D170BD56F82530A7
:1043C00098470135EEE756F8253098470135F2E772
:1043D000C8440008C8440008C8440008CC44000889
:1043E000F8B500BFF8BC08BC9E467047F8B500BFE2
:0843F000F8BC08BC9E467047B2
:1043F80002030405060708090A0B0C0D0E0F10101E
:104408000102000050440008A93A0008000000001A
:104418000000000080000000000000000000000014
:104428000102030406070809000000000102030452
:1044380049444C45000000002E2E2F5372632F6D07
:1044480061696E2E6300000064656661756C745462
:1044580061736B002E2E2F5372632F757362645F26
:10446800636F6E662E63000053544D3332205669D5
:10447800727475616C20436F6D506F727400000028
:1044880053544D6963726F656C656374726F6E69BE
:1044980063730000303030303030303030303141EC
:1044A8000000000043444320436F6E6669670000C4
:1044B80043444320496E7465726661636500000079
:0444C80035010008B2
:0444CC0011010008D2
:1044D000010000001000000009024300020100C0BA
:1044E0003209040000010202010005240010010548
:1044F00024010001042402020524060001070582AC
:104500000308001009040100020A00000007050169
:10451000024000000705810240000000090243003C
:10452000020100C03209040000010202010005245A
:1045300000100105240100010424020205240600E4
:10454000010705820308001009040100020A0000A7
:1045500000070501020002000705810200020000B9
:1045600009074300020104C03209040000010202ED
:1045700001000524001001052401000104240202A9
:104580000524060001070582030800FF0904010055
:10459000020A000000070501024000000705810231
:1045A000400000000A060002000000400100000078
:1045B0002F250008F52400088124000800000000D1
:1045C000F7230008E523000851240008000000003C
:1045D00000000000000000002D2400082124000835
:1045E0003924000845240008AAAAAAAA00A24A045D
:1045F000E13F0008BD3F0008C13F0008C53F00087B
:10460000120100020202004083044057000201022E
:1046100003010000040309048942000895420008D0
:10462000C5420008A1420008E14200080543000815
:044630002943000812
:040000050800434D5F
:00000001FF
